:030000000215AE38
:1015AE0078FFE4F6D8FD9000007F007E01E4F0A302
:0A15BE00DFFCDEFA7581430216031C
:0D00560075952875960E43C80175AA012204
:0F1D1500EF540FFFE59554F04FF595439540229D
:0A1D5900758B02E4F58C43B80222FA
:0A1D6300758921E4F58443C80822C5
:091D6D00E4F589F58453C8F7225E
:0D1D410075920775947C43C0104392802278
:101CCB00E4F5BB75BA0175BD0F75BC4343C020432A
:031CDB00BB8022A9
:101C3B00758684E4F58D758F5A75D80475D9407FF8
:0F1C4B00FAFE121A7075D804E4F58F758D3822E1
:101AD600759BFBE4F59CF59DF59EF58075A3F7F5E2
:101AE600A4F5A5F5A6F58875ABF0F5ACF5ADF5AEA4
:101AF600F59075B330F5B475B502F5B675B77022C5
:0B1D4E00000000000000000000002268
:081A700090000EEEF0A3EFF070
:101A7800E4FBFA90000EE0FEA3E0FF7C007D0A1272
:101A8800019FC3EB9FEA9E5013121D4E121D4E126A
:0C1A98001D4E121D4E0BEB70010A80D792
:011AA400221F
:041CB3004100620189
:10038200C2BF121AD6121C3B121D59121D41121C59
:10039200CB12005643AB0343AC034390031216CA7D
:1003A200121D3353ABFC53ACFC7B017A0079619094
:1003B20000137401F07FE07E1F121842900061E08A
:1003C20064AA6036900064E04401F0E054FDF090CD
:1003D2000063E0FEA3E054E34414FF900063EEF0F8
:1003E200A3EFF0900063E0F0A3E0541FF0900063ED
:1003F200E054FEF012088D02054C7B017A00790070
:10040200900013740EF07FE07E1F121842900001DC
:10041200E05401FF900063E0FCA3E054FEFDECFE1B
:10042200ED4FFF900063EEF0A3EFF0900002E05476
:100432000125E0FFE433FE900063E0FCA3E054FDFD
:10044200FDEC4EFEED4FFF900063EEF0A3EFF09057
:100452000003E07E0054077802C333CE33CED8F9CE
:10046200FF900063E0FCA3E054E3FDEC4EFEED4F91
:10047200FF900063EEF0A3EFF0900004E07E0054E2
:10048200077805C333CE33CED8F9FF900063E0FC82
:10049200A3E0541FFDEC4EFEED4FFF900063EEF023
:1004A200A3EFF0900005E05401FE900063E054FEDB
:1004B200FCA3E0FDEC4EFFED900063CFF0A3EFF064
:1004C200900007E0FE900006E0FDEEFCED900008D3
:1004D200E07E007810C333CE33CED8F9FFEE4CFC69
:1004E200EF4DFD900009E07E007818C333CE33CE85
:1004F200D8F9FFEE4CFEEF4DFFEE3395E0FDFC9098
:10050200003512023D90000BE0FE90000AE0FDEE85
:10051200FCED90000CE07E007810C333CE33CED8D1
:10052200F9FFEE4CFCEF4DFD90000DE07E007818D7
:10053200C333CE33CED8F9FFEE4CFEEF4DFFEE3390
:1005420095E0FDFC90004D12023D121D63D2BF905A
:100552000064E030E1035380DF12139E900034E028
:100562006043900051E0FCA3E0FDA3E0FEA3E0FFA6
:10057200120F7D90005FEFF09000511202490000CF
:100582000000E490005DF0A3F0900060F043802052
:10059200120631E4900034F0900065F0121D6D12E5
:1005A200088D121D63900063E030E012900045E078
:1005B200600C12115F121D6D12088D121D639000E6
:1005C2005CE0700690003AE06013C3900033E09460
:1005D20058900032E094024004E4F0A3F090004A04
:1005E200E0603D90005D7402F0A314F012000390ED
:1005F200004A7401F0900064E054FEF0900063E061
:10060200F0A3E0541FF0E490003AF090003512029B
:100612004900000000E4900046F0A3F090004AF088
:0E062200900039E0700302055EE4F002055E10
:0106300022A7
:1006310090005FE024FEB40D00400302088C900698
:100641004D75F003A4C58325F0C5837302067802B6
:1006510006880206980206A80206B80206C8020623
:10066100D80206E802074C0207B002081402088CFF
:10067100020674120D5F22900063E020E00312185D
:10068100E3E490005FF022900063E020E0031219A0
:100691001CE490005FF022900063E020E003121957
:1006A10055E490005FF022900063E020E00312190E
:1006B1008EE490005FF022900063E020E0031219C5
:1006C100C7E490005FF022900063E020E003121A7B
:1006D10000E490005FF022900063E020E003121B31
:1006E10064E490005FF022900064E030E034900018
:1006F10063E020E02DFEA3E07805CEC313CE13D82E
:10070100F954076401601B7F011212E1900063E05C
:10071100FEA3E0541F4420FF900063EEF0A3EFF02E
:100721008023900064E030E01C900063E020E0153D
:10073100FEA3E07805CEC313CE13D8F954076401A4
:100741007003121A39E490005FF022900064E030E7
:10075100E034900063E020E02DFEA3E07805CEC3F5
:1007610013CE13D8F954076402601B7F021212E101
:10077100900063E0FEA3E0541F4440FF900063EE4D
:10078100F0A3EFF08023900064E030E01C90006360
:10079100E020E015FEA3E07805CEC313CE13D8F90F
:1007A100540764027003121A39E490005FF022903A
:1007B1000064E030E034900063E020E02DFEA3E02F
:1007C1007805CEC313CE13D8F954076404601B7F98
:1007D100041212E1900063E0FEA3E0541F4480FF85
:1007E100900063EEF0A3EFF08023900064E030E02E
:1007F1001C900063E020E015FEA3E07805CEC31352
:10080100CE13D8F9540764047003121A39E4900026
:100811005FF022121A39900063E020E03BA3E03040
:10082100E036900063E0C313A3E013540175F003B5
:10083100A4240490005DF0A37401F0900063E044EF
:1008410001F090005C7401F0E4900045F090004DDF
:100851001202490000000022900063E0C313A3E0EC
:1008610013540175F003A4240290005DF0A37401F8
:10087100F0900063E054FEF0E490005CF0900045DD
:0C088100F090004D12024900000000221F
:10139E00900064E030E05C900063E0FEA3E0780231
:1013AE00CEC313CE13D8F95407B40800504590138A
:1013BE00C3F82828730213DB0213E00213E50213AD
:1013CE00EA0213EF0213F40213F90213FE120003E2
:1013DE0080211218E3801C12191C801712195580D7
:1013EE001212198E800D1219C78008121A0080036E
:1013FE00121B64900063E0FEA3E07805CEC313CE0B
:10140E0013D8F954076016900063E0FEA3E0780548
:10141E00CEC313CE13D8F95407FF1212E190006316
:10142E00E030E027C313A3E013540175F003A424A6
:10143E000490005DF0A37401F0900063E04401F0AD
:0C144E0090005C7401F0E4900045F02276
:10107900900062E06067C3900044E094D29000431E
:10108900E09400500302115E43AB0343AC03439069
:1010990003E4900062F0FF12000E900067EFF05336
:1010A900ABFC53ACFC900065E0700D900067E02448
:1010B900F6F0E0FF121BEE22900065E070030211CA
:1010C9005ED3900044E094D5900043E0940050072B
:1010D9009000627401F022E4900062F022D3900043
:1010E90044E094AA900043E09400400CA3E094B833
:1010F900900043E094005019900067E0C394FF7496
:101109008094805003E004F0900067E0FF121BEE2A
:1011190022C3900044E094B8900043E09400402931
:10112900D3A3E094CD900043E09400501C90006656
:10113900E004F0E0C39414748094804018E4F090C3
:10114900006204F0900065F022900067E024FEF050
:06115900E0FF121BEE2274
:101CB70042005A000042004B00004200430000412E
:031CC700003100E9
:03000B00020B1FC6
:100B1F00C0E0C0F0C083C082C0D075D000C000C09C
:100B2F0001C002C003C004C005C006C00790003456
:100B3F00E06003020C2B90005AE0FFA3E09000410D
:100B4F00CFF0A3EFF090005AE4F0A3F0900049E04B
:100B5F0004F07006900048E004F0C3900042E09467
:100B6F00C8900041E064809480401690004874FF64
:100B7F00F0A314F090003D12024900000000020C97
:100B8F002BC3900048E064809480405FA3E09420E2
:100B9F00900048E0648094805051C3900042E094EC
:100BAF0008900041E064809480407190003DE0F82F
:100BBF00A3E0F9A3E0FAA3E0FBC000C00190004856
:100BCF00E0A3E0FF741F9FF9E47F01FEFDFCA80185
:100BDF0012022AD001D000EB4FFFEA4EFEE94DFD85
:100BEF00E84CFC90003D12023D8031C3900049E07B
:100BFF009420900048E064809480402090003DE075
:100C0F00FCA3E0FDA3E0FEA3E0FF90005112023D24
:100C1F00900048E4F0A3F090003404F0D007D00621
:100C2F00D005D004D003D002D001D000D0D0D082D4
:070C3F00D083D0F0D0E032B9
:03004B000217C7D2
:1017C700C0E0C0F0C083C082C0D075D000C000C0E8
:1017D70001C002C003C004C005C006C007D3900003
:1017E7005BE094FA90005AE09400500CA3E004F0F8
:1017F700700690005AE004F0900055E004F0E0C352
:1018070094647480948040187F08121D15900055C9
:10181700E4F090003CE004F0700690003BE004F038
:10182700D007D006D005D004D003D002D001D00015
:0B183700D0D0D082D083D0F0D0E032BF
:030053000209D7C8
:1009D700C0E0C0F0C083C082C0D075D000C000C0E6
:1009E70001C002C003C004C005C006C00790005D77
:1009F700E06016900060E0540170055380DF8003CB
:100A070043802090005DE014F090005EE060159058
:100A1700005DE0D39400748094804008900060E00B
:100A270004F08017900060E4F090005EF090005DA5
:100A3700F0900064E030E1035380DF90003AE0601B
:100A470058900035E0FCA3E0FDA3E0FEA3E0FFE43F
:100A5700FAF9F8EF2401FFEA3EFEE93DFDE83CFC28
:100A670090003512023D900033E004F070069000CC
:100A770032E004F0900046E0FEA3E0FFE4FCFD90C6
:100A87000035E0F8A3E0F9A3E0FAA3E0FBC3120204
:100A970000400690004A7401F090005CE0605E90B0
:100AA700004DE0FCA3E0FDA3E0FEA3E0FFE4FAF9BC
:100AB700F8EF2401FFEA3EFEE93DFDE83CFC90002B
:100AC7004D12023D900033E004F07006900032E0D2
:100AD70004F0E47F207E1CFDFC90004DE0F8A3E0CD
:100AE700F9A3E0FAA3E0FBC312020040109000450F
:100AF7007401F090004D12024900000000D007D0A9
:100B070006D005D004D003D002D001D000D0D0D079
:080B170082D083D0F0D0E0325F
:03006300020E7515
:100E7500C0E0C0F0C083C082C0D075D000C000C043
:0D0E850001C002C003C004C005C006C007C4
:100E920090002D12024900000000AF97EFFFAD96BF
:100EA200ED90004BCFF0A3EFF0900056E0F8A3E0F6
:100EB200F9A3E0FAA3E0FB90004BE0FEA3E0FFE41D
:100EC200FCFDEB2FFFEA3EFEED39FDEC38FC900015
:100ED2005612023D900031E004F0E0C39432748077
:100EE20094804079900056E0FCA3E0FDA3E0FEA3CD
:100EF200E0FFE47B32FAF9F812189F9000561202D2
:100F02003DE47FFAFEFDFC900056E0F8A3E0F9A371
:100F1200E0FAA3E0FB1201B190002D12023D900015
:100F22002DE0FCA3E0FDA3E0FEA3E0FFE4FB7A10CA
:100F3200F9F812189F90002D12023D90002DE0A3A7
:100F4200E0A3E0FFA3E0900043CFF0A3EFF0900016
:100F520031E4F0900056120249000000005395BFA0
:100F6200D007D006D005D004D003D002D001D000E3
:0B0F7200D0D0D082D083D0F0D0E0328D
:03007B00021CDE86
:101CDE00C0E0C083C0829000397401F0D082D083FE
:031CEE00D0E03211
:101CF10075F18978209010E0E7F009A3D8FAE4F5AE
:021D0100F122CD
:0F1D2400850DF1850CF2E5F330E7FBE4F5F122D4
:101B0600C2BF85B80A85C00885C809858D0BE4F56E
:101B16008D430B049010D874AAF09010DA7455F027
:0F1B26009010DD74A5F0E4F5F575F606F5F722DD
:101B350075F233E4F5F575F606F5F79010D8F090E3
:101B450010DAF09010DDF078307A14E4F608DAFC5B
:0F1B5500850B8D850AB88508C08509C8D2BF22C7
:101C9600900019EBF0A3EAF0A3E9F0901CF178307C
:0D1CA6007A12E493F6A308DAF902803022E6
:101BC200E4900019F07E1D7F24FDEDC3940F748014
:101BD20094805014EF2DF582E43EF583E493FC7477
:0C1BE200302DF8A6040D80E202803022B5
:10174B00900011EEF0A3EFF07DE0E4F5F2F5F4F587
:10175B00F1121B0675F49D75F202750D91750C0B4C
:10176B00900011E0A3E0F5F5900011E0F5F6E4F53B
:10177B00F774E064E06009121B35E4F58D7FFF22FE
:10178B00121BC2121B35E4FDFCC3ED9420EC94003C
:10179B005027900011E0FEA3E0F5828E83E4936066
:1017AB00037FFF22900012E004F07006900011E01E
:0C17BB0004F00DED70010C80D07F0022C6
:10122400900011EEF0A3EFF0A3EBF0A3EAF0A3E932
:10123400F090001874F0F0121B0675F49D75F1819E
:1012440075F202900011E0A3E0F5F5900011E0F5CD
:10125400F6E4F5F7900013E0FBA3E0FAA3E0F9123B
:101264001C96750DA1750C0B900018E064F06009D4
:10127400121B35E4F58D7FFF22121BC2121B359021
:101284000013E0FBA3E0FAA3E0F9E4A3F0A3F0C3A6
:10129400900017E09420900016E09400503C120156
:1012A40074FF900011E0FCA3E0F5828C83E4936F5B
:1012B40060037FFE22900012E004F070069000119B
:1012C400E004F0740129F9E43AFA900017E004F01C
:0D12D4007006900016E004F080B57F002247
:1018420090000EEEF0A3EFF090000EE0FFA3E09008
:101852000014CFF0A3EFF0900013E0FF90000FE030
:101862002FFF90000EE03400FEC3900015E09F9021
:101872000014E09E5024E0FEA3E0F5828E83E49300
:1018820012018D740129F9E43AFA900015E004F08E
:0D1892007006900014E004F080BD7F00227D
:04004E00120000227A
:10088D00780E76AA900064E0540108F6900063E0BB
:10089D00C313A3E013540108F6900063E0FEA3E038
:1008AD007802CEC313CE13D8F954077811F6900001
:1008BD0063E0FEA3E07805CEC313CE13D8F9540739
:1008CD007812F6900063E0540108F6900035E0FCD4
:1008DD00A3E0FDA3E0FEA3E0FFE408A6079000352A
:1008ED00E0FCA3E0FDA3E0FEA3E0FF7808120216F2
:1008FD00EFE47815A607900035E0FCA3E0FDA3E03A
:10090D00FEA3E0FF7810120216EFE47816A607900A
:10091D000035E0FCA3E0FDA3E0FEA3E0FF78181294
:10092D000216EFE47817A60790004DE0FCA3E0FD5A
:10093D00A3E0FEA3E0FFE408A60790004DE0FCA3B2
:10094D00E0FDA3E0FEA3E0FF7808120216EFE478C5
:10095D0019A60790004DE0FCA3E0FDA3E0FEA3E087
:10096D00FF7810120216EFE4781AA60790004DE0FA
:10097D00FCA3E0FDA3E0FEA3E0FF7818120216EF42
:10098D00E4781BA60774FF75F020A4FF90000FE517
:10099D00F0F0A3EFF090000FE0FEA3E0FF12174B75
:1009AD0090000EEFF0E060037F012290000FE0FE5B
:1009BD00A3E0FF7B007A00790E12122490000EEF57
:0909CD00F0E060037F02227F00CC
:0109D60022FE
:060F7D0090000E12023D7F
:100F830090000EE0FCA3E0FDA3E0FEA3E0FF7818D1
:100F9300120216EFE4A3EFF090000EE0FCA3E0FDD5
:100FA300A3E0FEA3E0FF7810120216EFE490001313
:100FB300EFF090000EE0FCA3E0FDA3E0FEA3E0FF52
:100FC3007808120216EFE4AB0790000EE0FCA3E0F2
:100FD300FDA3E0FEA3E0FFE4EB6FF460037F0D22CB
:100FE30090000EE0FCA3E0FDA3E0FEA3E0FF1202ED
:100FF3007A10701B7E48B710611B7EA85710641BC4
:101003007EC837104F1B7EE01F105B30CF1AE510F0
:101013004C30CF2AD5106D30CF3AC5106730CF5A38
:10102300A5105530CF6A95105E30CF9A65105230B7
:10103300CFAA55106A30CFDA25105830CFEA1510F1
:101043007330CFFA05000010767F0E227F01227FD6
:1010530002227F03227F04227F05227F06227F074D
:10106300227F08227F09227F0A227F0B227F0F2201
:051073007F0C227F0D3F
:011078002255
:06000300E4FF121BEE22D7
:100D5F00900064E020E003020E0C900063E0C313E8
:100D6F00A3E013540175F003A4240290005DF090EA
:100D7F00005E7401F0120003900064E054FEF090E6
:100D8F000063E0FEA3E07802CEC313CE13D8F9546C
:100D9F00077014900063E0FEA3E054E34414FF9047
:100DAF000063EEF0A3EFF0900063E0FEA3E07805A0
:100DBF00CEC313CE13D8F95407601BE490003AF05A
:100DCF00900035F0A3F0900046F0A3F0900063E0A0
:100DDF00F0A3E0541FF0900063E030E01AE49000BD
:100DEF005CF0900045F090004D12024900000000A9
:100DFF00900063E054FEF0E490005FF022900063F7
:100E0F00E0FEA3E07802CEC313CE13D8F95407B493
:100E1F0008005045900E2AF8282873020E42020E41
:100E2F0047020E4C020E51020E56020E5B020E606E
:100E3F00020E6512000380211218E3801C12191C88
:100E4F008017121955801212198E800D1219C78032
:100E5F0008121A008003121B64900064E04401F032
:060E6F00E490005FF02298
:1018E300900063E0C313A3E013540175F003A42431
:1018F3000290005DF090005E7401F07F64121BEEB5
:10190300900063E0FEA3E054E34404FF900063EE21
:09191300F0A3EFF0E04401F02222
:10191C00900063E0C313A3E013540175F003A424F7
:10192C000490005DF090005E7401F07F78121BEE65
:10193C00900063E0FEA3E054E34408FF900063EEE4
:09194C00F0A3EFF0E04401F022E9
:10195500900063E0C313A3E013540175F003A424BE
:101965000690005DF090005E7401F07F96121BEE0C
:10197500900063E0FEA3E054E3440CFF900063EEA7
:09198500F0A3EFF0E04401F022B0
:10198E00900063E0C313A3E013540175F003A42485
:10199E000890005DF090005E7401F07FAA121BEEBD
:1019AE00900063E0FEA3E054E34410FF900063EE6A
:0919BE00F0A3EFF0E04401F02277
:1019C700900063E0C313A3E013540175F003A4244C
:1019D7000A90005DF090005E7401F07FCB121BEE61
:1019E700900063E0FEA3E054E34414FF900063EE2D
:0919F700F0A3EFF0E04401F0223E
:101A0000900063E0C313A3E013540175F003A42412
:101A10000C90005DF090005E7401F07FB9121BEE37
:101A2000900063E0FEA3E054E34418FF900063EEEF
:091A3000F0A3EFF0E04401F02204
:101B6400900063E0C313A3E013540175F003A424AD
:101B74000290005DF090005E7401F07FCB121BEECA
:0F1B8400900063E0F0A3E0441CF0E04401F02285
:1012E100AD07ED6401702A900063E0C313A3E0131E
:1012F100540175F003A4240490005DF090005E7425
:1013010001F090003AF09000467438F0A37440F078
:1013110022ED6402702A900063E0C313A3E013542A
:101321000175F003A4240890005DF090005E740143
:10133100F090003AF09000467470F0A37480F022AF
:10134100ED6403702A900063E0C313A3E01354011A
:1013510075F003A4240C90005DF090005E7401F020
:1013610090003AF090004674A8F0A374C0F022ED0A
:1013710064047028900063E0C313A3E01354017563
:10138100F003A4241090005DF090005E7401F090D1
:0D139100003AF090004674E1F0A3E4F02271
:10115F00900045E07003021223900063E0FCA3E0CF
:10116F00FDAE047802CEC313CE13D8F95407FFEDAA
:10117F0054E3FDEF24FFFFE434FF7E00EF540778C4
:10118F0002C333CE33CED8F9FFEC4EFEED4FFF90B6
:10119F000063EEF0A3EFF0E4900045F0900063E001
:1011AF00FEA3E07802CEC313CE13D8F95407146010
:1011BF00501460511460521460531460542405701D
:1011CF0053900063E0C313A3E013540175F003A41D
:1011DF00240290005DF090005E7401F01200039005
:1011EF000064E054FEF0900063E054FEF0E49000E1
:1011FF005CF0900045F090004D1202490000000095
:10120F00221218E32212191C221219552212198EBA
:05121F00221219C72294
:101A3900900063E0C313A3E013540175F003A424D9
:101A49000290005DF090005E7401F0E490003AF0BD
:101A5900900035F0A3F0900046F0A3F0900063E009
:071A6900F0A3E0541FF0227E
:100066000C01C02E908070186662CF882A047F0229
:04007600FFEB267303
:1016CA00E490000EF07D2B7FF1121AA57F647E0054
:1016DA00121D0312164890000EEFF0E064016060DC
:1016EA007DC07F03121AA57F647E00121D037D2B25
:1016FA007FF1121AA57F647E00121D03120C467D2B
:10170A00B67F02121AA57F647E00121D037DD07F68
:10171A0003121AA57F107E27121D037F0312000EE3
:10172A0090006AEFF0E05410F0E070EF90000EF0D5
:10173A0012164890000EEFF0E0640160031216CA18
:01174A00227C
:101AA50090000FEFF0A3EDF0121B937F687E0012FC
:101AB500150A90000FE0FF7E0012150A900010E055
:101AC500FF7E0012150A121C167FE87E03121D0305
:011AD50022EE
:05000E00900025EFF059
:10001300121B937F687E0012150A900025E0FF7E75
:100023000012150A121C16121B937F697E0012150B
:100033000A12145A900026EFF0121C78121C169024
:040043000026E0FFB4
:010047002296
:101B930043AB0243AC027F647E00121D03439002F9
:101BA3004390017F647E00121D035390FD7F647E8A
:0F1BB30000121D035390FE7F647E00121D03225B
:101C160043AB0243AC027F647E00121D035390FD6A
:101C26007F647E00121D034390017F647E00121DB7
:051C36000343900222AF
:101C5A0043AB0243AC027F647E00121D035390FD26
:0E1C6A004390017F647E00121D035390FE2202
:101C780043AB0243AC027F647E00121D0343900213
:0E1C88004390017F647E00121D035390FE22E4
:08150A00900027EEF0A3EFF0C2
:10151200A3E4F0A37480F043AB0243AC027F647E89
:1015220000121D0390002BE4F0A37408F0D3900086
:101532002CE0940090002BE064809480404C90005A
:1015420029E0FEA3E0FF900027E05EFEA3E05F4EED
:10155200600543900280035390FD4390017F647EB7
:1015620000121D035390FE7F647E00121D03900043
:1015720029E0A2E713F0A3E013F090002CE024FF8F
:10158200F090002BE034FFF080A343900253ABFDB8
:101592007F647E00121D034390017F647E00121D52
:0B15A200035390FE7F647E00121D03C7
:0115AD00221B
:10145A00E4900027F0A3F053ABFD7F64FE121D0356
:10146A00900029E4F0A37408F0D390002AE09400D5
:10147A00900029E06480948040527F647E00121DAF
:10148A00034390017F647E00121D03900028E0252B
:10149A00E0F0900027E033F0E5905402FF7E006010
:1014AA0009E0F0A3E04401F0800F900027E0FFA3D9
:1014BA00E0900027CFF0A3EFF05390FE90002AE0CF
:1014CA0024FFF0900029E034FFF0809D43AB0243F3
:1014DA00AC027F647E00121D034390027F647E008B
:1014EA00121D034390017F647E00121D035390FE78
:0F14FA007F647E00121D03900027E0FEA3E0FF39
:0115090022BF
:101D0300E4FDFCC3ED9FEC9E50070DED70010C80CC
:011D1300F2DD
:011D140022AC
:100C46007D0C7F20121AA57F647E00121D037D0194
:100C56007F21121AA57F647E00121D037DC07F22AC
:100C6600121AA57F647E00121D037D2E7F23121AA1
:100C7600A57F647E00121D037D907F24121AA57F36
:100C8600647E00121D037D807F25121AA57F647E77
:100C960000121D037D707F26121AA57F647E001246
:100CA6001D037D187F27121AA57F647E00121D037F
:100CB6007D667F28121AA57F647E00121D037D6261
:100CC6007F29121AA57F647E00121D037DCF7F2A1D
:100CD600121AA57F647E00121D037D887F2B121ACF
:100CE600A57F647E00121D037D2A7F2C121AA57F24
:100CF600647E00121D037D047F2D121AA57F647E7B
:100D060000121D037D7F7F2E121AA57F647E0012BE
:100D16001D037D027F2F121AA57F647E00121D031C
:100D26007DFF7F30121AA57F647E00121D037DEBC6
:100D36007F31121AA57F647E00121D037D267F3245
:100D4600121AA57F647E00121D037D737F33121A6B
:090D5600A57F647E00121D03223A
:101648007BFF7A007966780F7C007D017E007F142D
:1016580012014EE4900023F0F0900023E0D394139D
:10166800748094805059E02420FF12000E90006B83
:10167800EFF0900023E0D39412748094805016E029
:10168800240FF582E43400F583E0FF90006BE06FEF
:1016980060257F002290006BE054F0F0900023E07A
:1016A800240FF582E43400F583E054F0FF90006BDA
:1016B800E06F60037F0022900023E004F0809A7FAF
:0116C8000120
:0116C90022FE
:0E1D33007D807F01121AA5E4FDFF121AA52281
:051BEE0090000EEFF075
:101BF30043AB0343AC03439003E0FDE4FF121AA598
:101C0300E4FF12000E90000EE0B507F453ABFC5353
:021C1300ACFC27
:011C150022AC
:1015C800020382E493A3F8E493A34003F68001F2B4
:1015D80008DFF48029E493A3F85407240CC8C33324
:1015E800C4540F4420C8834004F456800146F6DFF3
:1015F800E4800B0102040810204080901CB3E47EB4
:10160800019360BCA3FF543F30E509541FFEE493E7
:10161800A360010ECF54C025E060A840B8E493A3AE
:10162800FAE493A3F8E493A3C8C582C8CAC583CAD9
:10163800F0A3C8C582C8CAC583CADFE9DEE780BE91
:011CCA000019
:10007E00E709F608DFFA8046E709F208DFFA803E64
:10008E0088828C83E709F0A3DFFA8032E309F60851
:10009E00DFFA8078E309F208DFFA807088828C83B9
:1000AE00E309F0A3DFFA806489828A83E0A3F6086D
:1000BE00DFFA805889828A83E0A3F208DFFA804C47
:1000CE0080D280FA80C680D4806980F2803380101E
:1000DE0080A680EA809A80A880DA80E280CA803387
:1000EE0089828A83ECFAE493A3C8C582C8CCC583FF
:1000FE00CCF0A3C8C582C8CCC583CCDFE9DEE780CF
:10010E000D89828A83E493A3F608DFF9ECFAA9F04D
:10011E00EDFB2289828A83ECFAE0A3C8C582C8CCA3
:10012E00C583CCF0A3C8C582C8CCC583CCDFEADEBC
:10013E00E880DB89828A83E493A3F208DFF980CC1E
:10014E0088F0EF60010E4E60C388F0ED2402B40417
:10015E000050B9F582EB2402B4040050AF232345BE
:06016E0082239000CE7315
:10017400BB010689828A83E0225002E722BBFE0289
:09018400E32289828A83E49322BC
:10018D00BB010689828A83F0225002F722BBFE0151
:02019D00F3224B
:10019F00EF8DF0A4A8F0CF8CF0A428CE8DF0A42E74
:0201AF00FE222E
:1001B100E88FF0A4CC8BF0A42CFCE98EF0A42CFCED
:1001C1008AF0EDA42CFCEA8EF0A4CDA8F08BF0A46B
:1001D1002DCC3825F0FDE98FF0A42CCD35F0FCEBCA
:1001E1008EF0A4FEA9F0EB8FF0A4CFC5F02ECD398F
:0F01F100FEE43CFCEAA42DCE35F0FDE43CFC22FC
:10189F00C2D5E830E70FB2D5E4C39BFBE49AFAE474
:1018AF0099F9E498F8EC30E717B2D51218D512026F
:1018BF00F0E4C39BFBE49AFAE499F9E498F8800307
:1018CF001202F030D50DE4C39FFFE49EFEE49DFDB0
:0418DF00E49CFC2267
:10020000EB9FF5F0EA9E42F0E99D42F0EC6480C875
:0602100064809845F02215
:10021600E86010ECA2E713FCED13FDEE13FEEF13FE
:04022600FFD8F022EB
:10022A00E8600FEFC333FFEE33FEED33FDEC33FC32
:03023A00D8F122D6
:0C023D00ECF0A3EDF0A3EEF0A3EFF02234
:10024900A8828583F0D083D08212026012026012E4
:100259000260120260E473E493A3C583C5F0C58309
:10026900C8C582C8F0A3C583C5F0C583C8C582C8FF
:010279002262
:10027A00D083D082E4937012740193700DA3A39378
:10028A00F8740193F5828883E4737402936C701294
:10029A007403936D700C7404936E70067405936FF7
:0A02AA0060DDA3A3A3A3A3A380CAF1
:1002B40075F008758200EF2FFFEE33FECD33CDCC01
:1002C40033CCC58233C5829BED9AEC99E582984084
:1002D4000CF582EE9BFEED9AFDEC99FC0FD5F0D661
:1002E400E4CEFBE4CDFAE4CCF9A88222B800C1B98B
:1002F4000059BA002DEC8BF084CFCECDFCE5F0CBC9
:10030400F97818EF2FFFEE33FEED33FDEC33FCEB01
:1003140033FB10D703994004EB99FB0FD8E5E4F9BC
:10032400FA227818EF2FFFEE33FEED33FDEC33FCA9
:10033400C933C910D7059BE99A4007EC9BFCE99A9D
:10034400F90FD8E0E4C9FAE4CCFB2275F010EF2FE2
:10035400FFEE33FEED33FDCC33CCC833C810D707E2
:100364009BEC9AE899400AED9BFDEC9AFCE899F81D
:0E0374000FD5F0DAE4CDFBE4CCFAE4C8F922B0
:00000001FF
