:03000000021334B4
:1013340078FFE4F6D8FD9000007F007E01E4F0A37E
:0A134400DFFCDEFA75814302138915
:0D00560075952875960E43C80175AA012204
:0F1B4F00EF540FFFE59554F04FF5954395402265
:0A1B9200758B02E4F58C43B80222C3
:0A1B9C00758921E4F58443C808228E
:091BA600E4F589F58453C8F72227
:0D1B6D0075920775947C43C010439280224E
:101AE400E4F5BB75BA0175BD0F75BC4343C0204313
:031AF400BB802292
:101A3D00758684E4F58D758F5A75D80475D9407FF8
:0E1A4D00FAFE12199975D804E4F58DF58F2272
:1018E200759BFBE4F59CF59DF59EF58075A3F7F5D8
:1018F200A4F5A5F5A6F58875ABF0F5ACF5ADF5AE9A
:10190200F59075B330F5B475B502F5B675B77022BA
:0B1B8700000000000000000000002231
:04199900AB07AA06E8
:10199D009000007C007D0AAF03AE0212019FC3E5EB
:1019AD00829FE5839E500F121B87121B87121B8788
:0619BD00121B87A380DD70
:0119C3002201
:081A780041006201410063001E
:10038200C2BF1218E2439B20121A3D121B9243ACC9
:100392000C43900C121B6D121AE412005643AB036D
:1003A20043AC03439003121652121B7A53ABFC5315
:1003B200ACFC7B017A0079619000157401F07FE05A
:1003C2007E1F1216BF900061E064AA60359000653E
:1003D200E04401F054FDF0900064E0FEA3E054E339
:1003E200FF900064EEF0FEA3EFF0541FFF90006454
:1003F200EEF0A3EFF0900064E054FEF012097A02EE
:1004020005417B017A007900900015740EF07FE0BF
:100412007E1F1216BF900001E05401FF900064E0BD
:10042200FCA3E054FEFDECFEED4FFF900064EEF005
:10043200A3EFF0FDAC06900002E0540125E0FFE4DA
:1004420033FEED54FDFDEC4EFEED4FFF900064EEE9
:10045200F0FCA3EFF0FD900003E07E005407780269
:10046200C333CE33CED8F9FFED54E3FDEC4EFEEDAF
:100472004FFF900064EEF0FCA3EFF0FD900004E06B
:100482007E0054077805C333CE33CED8F9FFED543E
:100492001FFDEC4EFEED4FFF900064EEF0FCA3EF6B
:1004A200F0FD900005E05401FEEC54FE4EFFED908D
:1004B2000064CFF0A3EFF0900007E0FE900006E0AA
:1004C200FDEEFC900008E07E007810C333CE33CE00
:1004D200D8F9FFEE4CFCEF4DFD900009E07E00786C
:1004E20018C333CE33CED8F9FFEE4CFEEF4DFFEEFC
:1004F2003395E0FDFC90003512023D90000BE0FECA
:1005020090000AE0FDEEFC90000CE07E007810C343
:1005120033CE33CED8F9FFEE4CFCEF4DFD90000DFB
:10052200E07E007818C333CE33CED8F9FFEE4CFE0E
:10053200EF4DFFEE3395E0FDFC90004D12023D12AF
:100542001B9CE4F58DD2BF900065E030E10343804F
:1005520020121293900034E06043900051E0FCA31B
:10056200E0FDA3E0FEA3E0FF120DDF90005FEFF0DD
:1005720090005112024900000000E490005DF0A3D7
:10058200F0900060F05380DF1205E4E4900034F054
:10059200900066F0121BA612097A121B9C90004A68
:1005A200E06031438020121ADF900065E054FEF0D3
:1005B200900064E0F0A3E0541FF0E490003AF09061
:1005C200003512024900000000E4900046F0A3F05A
:1005D20090004AF0900039E07003020556E4F00200
:0205E2000556BC
:1005E40090005FE024FEB40D004003020831900641
:1005F4000075F003A4C58325F0C5837302062A029F
:10060400063D0206500206630206760206890206C9
:100614009C0206A902070A02076A0207CE020831F1
:10062400020627020BCC900064E020E042900063B5
:100634007401F01217560207C8900064E020E00924
:100644009000637402F012178F0207C8900064E0F0
:1006540020E0099000637403F01217C80207C890E1
:100664000064E020E0099000637404F012180102B1
:1006740007C8900064E020E0099000637405F0125C
:10068400183A0207C8900064E020E00990006374FF
:1006940006F01218730207C8900064E020E0031209
:1006A40019120207C8900065E030E034900064E05D
:1006B40020E02DFEA3E07805CEC313CE13D8F95461
:1006C400076401601B7F01121072900064E0FEA3B6
:1006D400E0541F4420FF900064EEF0A3EFF0802369
:1006E400900065E030E01C900064E020E015FEA37B
:1006F400E07805CEC313CE13D8F954076401700310
:1007040012000E0207C8900065E030E034900064E7
:10071400E020E02DFEA3E07805CEC313CE13D8F974
:1007240054076402601B7F02121072900064E0FEA2
:10073400A3E0541F4440FF900064EEF0A3EFF08068
:1007440023900065E030E01C900064E020E015FE9A
:10075400A3E07805CEC313CE13D8F954076402700E
:100764000312000E805E900065E030E03490006477
:10077400E020E02DFEA3E07805CEC313CE13D8F914
:1007840054076404601B7F04121072900064E0FE3E
:10079400A3E0541F4480FF900064EEF0A3EFF080C8
:1007A40023900065E030E01C900064E020E015FE3A
:1007B400A3E07805CEC313CE13D8F95407640470AC
:1007C4000312000EE490005FF02212000E90006409
:1007D400E0FB20E025A3E030E020900064E0C313B8
:1007E400A3E013540175F003A4240490005DF0A366
:1007F4007401F090005CF0E48025900064E0C31381
:10080400A3E013540175F003A4240290005DF0A347
:100814007401F0EB54FE900064F0E490005CF090FE
:0E0824000045F090004D120249000000002235
:10129300900065E030E05C900064E0FEA3E078023B
:1012A300CEC313CE13D8F95407B408005045901297
:1012B300B8F82828730212D00212D50212DA0212E9
:1012C300DF0212E40212E90212EE0212F3121ADF33
:1012D3008021121756801C12178F80171217C8808F
:1012E30012121801800D12183A8008121873800325
:1012F300121912900064E0FEA3E07805CEC313CE6A
:1013030013D8F95407FF6003121072900064E030A1
:10131300E01EC313A3E013540175F003A424049047
:10132300005DF0A37401F090005CF0E4900045F0E0
:011333002297
:100ECE00900062E06063C3900044E094D2900043CF
:100EDE00E094005003020FA543AB0343AC034390D1
:100EEE0003E4900062F0FF1218AC900068EFF0532C
:100EFE00ABFC53ACFC900066E07009900068E024F7
:100F0E00F6020F9F900066E07003020FA5D39000CB
:100F1E0044E094D5900043E0940050079000627432
:100F2E0001F022E4900062F022900043E0FEA3E084
:100F3E00FFD394AAEE94004008EF94B8EE940050BC
:100F4E0015900068E0C394FF748094805003E00411
:100F5E00F0900068803C900043E0FEA3E0FFC39455
:100F6E00B8EE94004025D3EF94CDEE9400501C9033
:100F7E000067E004F0E0C39414748094804018E499
:100F8E00F090006204F0900066F022900068E02479
:080F9E00FEF0E0FF121A15221B
:101A800042005A000042004B000042004300004167
:031A900000310022
:03000B00020AAC3A
:100AAC00C0E0C0F0C083C082C0D075D000C000C010
:100ABC0001C002C003C004C005C006C007900034CA
:100ACC00E06003020BB190005AE0FEA3E0FF90003F
:100ADC0041EEF0A3EFF090005AE4F0A3F09000493F
:100AEC00E004F07006900048E004F0C3EF94C8EE08
:100AFC0064809480401690004874FFF0A314F0902A
:100B0C00003D12024900000000020BB1900048E0C9
:100B1C00FEA3E0FFC3EE648094804058EF9420EE77
:100B2C0064809480504EC3900042E0940890004141
:100B3C00E064809480406E90003DE0F8A3E0F9A35F
:100B4C00E0FAA3E0FBC000C001900048A3741F9F13
:100B5C00F9E47F01FEFDFCA80112022AD001D000AD
:100B6C00EB4FFFEA4EFEE94DFDE84CFC90003D12C8
:100B7C00023D8031C3900049E09420900048E0642D
:100B8C00809480402090003DE0FCA3E0FDA3E0FEBB
:100B9C00A3E0FF90005112023D900048E4F0A3F056
:100BAC0090003404F0D007D006D005D004D003D088
:100BBC0002D001D000D0D0D082D083D0F0D0E0329F
:03004B0002156239
:10156200C0E0C0F0C083C082C0D075D000C000C04F
:1015720001C002C003C004C005C006C007D390006A
:101582005BE094FA90005AE09400500CA3E004F05F
:10159200700690005AE004F0900055E004F0E0C3B9
:1015A20094647480948040187F08121B4F900055F9
:1015B200E4F090003CE004F0700690003BE004F0A0
:1015C200D007D006D005D004D003D002D001D0007D
:0B15D200D0D0D082D083D0F0D0E03227
:030053000208326E
:10083200C0E0C0F0C083C082C0D075D000C000C08C
:1008420001C002C003C004C005C006C00790005D1D
:10085200E06016900060E054017005438020800340
:100862005380DF90005DE014F090005EE060159030
:10087200005DE0D39400748094804008900060E0B2
:1008820004F08017900060E4F090005EF090005D4C
:10089200F0900065E030E10343802090003AE06090
:1008A20058900035E0FCA3E0FDA3E0FEA3E0FFE4E6
:1008B200FAF9F8EF2401FFEA3EFEE93DFDE83CFCCF
:1008C20090003512023D900033E004F07006900073
:1008D20032E004F0900046E0FEA3E0FFE4FCFD906D
:1008E2000035E0F8A3E0F9A3E0FAA3E0FBC31202AB
:1008F20000400690004A7401F090005CE0605E9057
:10090200004DE0FCA3E0FDA3E0FEA3E0FFE4FAF962
:10091200F8EF2401FFEA3EFEE93DFDE83CFC9000D1
:100922004D12023D900033E004F07006900032E078
:1009320004F0E47F207E1CFDFC90004DE0F8A3E073
:10094200F9A3E0FAA3E0FBC31202004010900045B5
:100952007401F090004D12024900000000D007D04F
:1009620006D005D004D003D002D001D000D0D0D020
:0809720082D083D0F0D0E03206
:03006300020CD9B3
:100CD900C0E0C0F0C083C082C0D075D000C000C0E1
:0D0CE90001C002C003C004C005C006C00762
:100CF60090002D12024900000000AF97EFFFAD965D
:100D0600ED90004BCFF0A3EFF0900056E0F8A3E093
:100D1600F9A3E0FAA3E0FB90004BE0FEA3E0FFE4BA
:100D2600FCFDEB2FFFEA3EFEED39FDEC38FC9000B2
:100D36005612023D900031E004F0E0C39432748014
:100D460094804077900056E0FCA3E0FDA3E0FEA36C
:100D5600E0FFE47B32FAF9F81217129000561202FD
:100D66003DE47FFAFEFDFC900056E0F8A3E0F9A30F
:100D7600E0FAA3E0FB1201B190002D12023D9000B3
:100D86002DE0FCA3E0FDA3E0FEA3E0FFE4FB7A1068
:100D9600F9F812171290002D12023D90002DA3A310
:100DA600E0FFA3E0900043CFF0A3EFF0900031E422
:0E0DB600F0900056120249000000005395BF55
:100DC400D007D006D005D004D003D002D001D00083
:0B0DD400D0D0D082D083D0F0D0E0322D
:03007B00021AF76F
:101AF700C0E0C083C0829000397401F0D082D083E7
:031B0700D0E032F9
:101B1D0075F18978209010E0E7F009A3D8FAE4F583
:021B2D00F122A3
:0F1B5E00850DF1850CF2E5F330E7FBE4F5F1229C
:1019C400C2BF85B80A85C00885C809E4F58D9010A2
:1019D400D874AAF09010DA7455F09010DD74A5F064
:0919E400E4F5F575F606F5F722AD
:1019410075F233E4F5F575F606F5F79010D8F090D9
:1019510010DAF09010DDF078307A14E4F608DAFC51
:0C196100850AB88508C08509C8D2BF22DD
:101A5B00900018EBF0A3EAF0A3E9F0901B1D78308F
:0D1A6B007A12E493F6A308DAF90280302223
:10196D00E4900018F07E1B7F5EFDEDC3940F748034
:10197D0094805014EF2DF582E43EF583E493FC74CE
:0C198D00302DF8A6040D80E2028030220C
:1015DD00900010EEF0A3EFF07DE0E4F5F2F5F4F5F8
:1015ED00F11219C475F49D75F202750D91750C0B00
:1015FD00900010E0FEA3E0F5F5EEF5F6E4F5F774D6
:10160D00E064E06009121941E4F58D7FFF221219A3
:10161D006D121941E4FFFE900010E0FCA3E0F5828D
:10162D008C83E49360037FFF22900011E004F0703F
:10163D0006900010E004F00FBF00010EEF64204E85
:05164D0070D57F0022B2
:10113500900010EEF0A3EFF0A3EBF0A3EAF0A3E923
:10114500F090001774F0F01219C475F49D75F181D3
:1011550075F202900010E0FEA3E0F5F5EEF5F6E479
:10116500F5F7A3E0FBA3E0FAA3E0F9121A5B750D0E
:10117500A1750C0B900017E064F06009121941E4A9
:10118500F58D7FFF2212196D121941900012E0FBB7
:10119500A3E0FAA3E0F9E4A3F0A3F0120174FF9031
:1011A5000010E0FCA3E0F5828C83E4936F60037F7D
:1011B500FE22900011E004F07006900010E004F0AB
:1011C500740129F9E43AFA900016E004F0700690EB
:1011D5000015E004F0900015E07004A3E0642070B1
:0411E500BA7F0022AB
:1016BF00900010EEF0A3EFF0900016EEF0A3EFF015
:1016CF00900015E0FF900011E02FFF900010E03424
:1016DF0000FE900016E0FCA3E0FDC39FEC9E50209F
:1016EF008D828C83E49312018D740129F9E43AFA07
:1016FF00900017E004F070C8900016E004F080C06E
:03170F007F002236
:03000300020000F8
:10097A00780E76AA900064E0FEA3E0FF540108F620
:10098A00EEC313EF13540108F6900064E0FCA3E0F1
:10099A00FDAE047802CEC313CE13D8F954077811EA
:1009AA00F6AE04ED7805CEC313CE13D8F954077802
:1009BA0012F6900064E0540108F6900035A3A3A350
:1009CA00E0FF08A607900035E0FCA3E0FDA3E0FEE7
:1009DA00A3E0FF78081202167815A607900035E002
:1009EA00FCA3E0FDA3E0FEA3E0FF78101202167854
:1009FA0016A607900035E0FCA3E0FDA3E0FEA3E005
:100A0A00FF78181202167817A60790004DA3A3A321
:100A1A00E0FF08A60790004DE0FCA3E0FDA3E0FE7E
:100A2A00A3E0FF78081202167819A60790004DE095
:100A3A00FCA3E0FDA3E0FEA3E0FF78101202167803
:100A4A001AA60790004DE0FCA3E0FDA3E0FEA3E098
:100A5A00FF7818120216E4781BA60774FF75F020B7
:100A6A00A4FFAEF090000EEEF0A3EFF01215DDEF4A
:100A7A0060037F012290000EE0FEA3E0FF7B007A74
:100A8A0000790E121135EF60037F02227B017A0092
:100A9A00796B9000157401F07FE07E1F1216BF7FFC
:010AAA00004B
:010AAB002228
:060DDF0090000E12023D1F
:100DE50090000EE0FCA3E0FDA3E0FEA3E0FF781871
:100DF500120216A3EFF090000EE0FCA3E0FDA3E0C5
:100E0500FEA3E0FF7810120216900013EFF0900099
:100E15000EE0FCA3E0FDA3E0FEA3E0FF78081202CC
:100E250016AB0790000EA3A3A3E0FFEB6FF46003DE
:100E35007F0D2290000EE0FCA3E0FDA3E0FEA3E001
:100E4500FF12027A0EBF1B7E08F70EA11B7E10EF64
:100E55000EB01B7E20DF0EAA1B7E40BF0EC21B7E7E
:100E650048B70EC51B7E48B80EA71B7E807F0EBCFB
:100E75001B7E906F0EB31B7EA05F0EB61B7EA85720
:100E85000EAD1B7EC03F0EB91B7EC8370EA41B7E60
:100E9500E01F0EC830CFFA0500000ECB7F0E227F73
:100EA50001227F02227F03227F04227F05227F0603
:100EB500227F07227F08227F09227F0A227F0B22B9
:080EC5007F0F227F0C227F0D3C
:010ECD002202
:101ACC0013540175F003A4240290005DF090005EA5
:031ADC007401F0A2
:051ADF00E4FF021A15EE
:100BCC00900065E030E074900064E0C313A3E01281
:100BDC001ACC9000637407F0900065E054FEF0901E
:100BEC000064E0FCA3E0FDAE047802CEC313CE1388
:100BFC00D8F95407700EED54E34414FF900064ECE4
:100C0C00F0A3EFF0900064E0FCA3E0FDAE047805E7
:100C1C00CEC313CE13D8F95407601DE490003AF0FC
:100C2C00900035F0A3F0900046F0A3F0ED541FFFB8
:100C3C00900064ECF0A3EFF0020CD3900064E0FEA3
:100C4C00A3E07802CEC313CE13D8F95407B408002E
:100C5C00506E900C65F8282873020C7D020C8702EC
:100C6C000C92020C9D020CA8020CB3020CBE020CDE
:100C7C00C9E4900063F0121ADF80459000637401A0
:100C8C00F0121756803A9000637402F012178F809E
:100C9C002F9000637403F01217C8802490006374C3
:100CAC0004F012180180199000637405F012183AC0
:100CBC00800E9000637406F01218738003121912E0
:0D0CCC00900065E04401F0E490005FF0222C
:10175600900064E0C313A3E013540175F003A424BE
:101766000290005DF090005E7401F07F6E121A1513
:10177600900064E0FEA3E054E34404FF900064EEAE
:09178600F0A3EFF0E04401F022B1
:10178F00900064E0C313A3E013540175F003A42485
:10179F000490005DF090005E7401F07F8C121A15BA
:1017AF00900064E0FEA3E054E34408FF900064EE71
:0917BF00F0A3EFF0E04401F02278
:1017C800900064E0C313A3E013540175F003A4244C
:1017D8000690005DF090005E7401F07FB4121A1557
:1017E800900064E0FEA3E054E3440CFF900064EE34
:0917F800F0A3EFF0E04401F0223F
:10180100900064E0C313A3E013540175F003A42412
:101811000890005DF090005E7401F07FC8121A1507
:10182100900064E0FEA3E054E34410FF900064EEF6
:09183100F0A3EFF0E04401F02205
:10183A00900064E0C313A3E013540175F003A424D9
:10184A000A90005DF090005E7401F07FE6121A15AE
:10185A00900064E0FEA3E054E34414FF900064EEB9
:09186A00F0A3EFF0E04401F022CC
:10187300900064E0C313A3E013540175F003A424A0
:101883000C90005DF090005E7401F07FB9121A15A0
:10189300900064E0FEA3E054E34418FF900064EE7C
:0918A300F0A3EFF0E04401F02293
:10191200900064E0C313A3E013540175F003A42400
:101922000290005DF090005E7401F07FCB121A15F8
:0F193200900064E0F0A3E0441CF0E04401F022D8
:10107200EFFD7C006401702A900064E0C313A3E0DA
:1010820013540175F003A4240490005DF090005EF7
:101092007401F090003AF09000467438F0A3744066
:1010A200F022ED64024C702A900064E0C313A3E0C6
:1010B20013540175F003A4240890005DF090005EC3
:1010C2007401F090003AF09000467470F0A37480BE
:1010D200F022EFFD7C006403702A900064E0C313E9
:1010E200A3E013540175F003A4240C90005DF0906A
:1010F200005E7401F090003AF090004674A8F0A3EC
:1011020074C0F022ED64044C7028900064E0C313B4
:10111200A3E013540175F003A4241090005DF09035
:10112200005E7401F090003AF090004674E1F0A382
:03113200E4F022C4
:1011E900900045E07003021292900064E0FCA3E0D5
:1011F900FDAE047802CEC313CE13D8F95407FFED20
:1012090054E3FDEF24FFFF7E00EF54077802C33358
:10121900CE33CED8F9FFEC4EFEED4FFF900064EED1
:10122900F0A3EFF0E4900045F0900064E0FCA3E047
:10123900FDAE047802CEC313CE13D8F95407146057
:10124900391460391460391460391460392405700F
:1012590038ECC313ED121ACC900065E054FEF090FF
:101269000064E054FEF0E490005CF0900045F090DA
:10127900004D120249000000002202175602178F82
:0A1289000217C802180112183A22D9
:10000E00900064E0FCA3E0FDECC313ED1354017506
:10001E00F003A4240290005DF090005E7401F0E401
:10002E0090003AF0900035F0A3F0900046F0A3F067
:0D003E00ED541FFF900064ECF0A3EFF022E2
:100066000C01C02E908070186662CF882A047F0229
:04007600FFEB267303
:10165200E490000EF07D2B7FF11219ED121AB612F2
:1016620014E290000EEFF0640160517DC07F03121E
:1016720019ED121AB67D2B7FF11219ED121AB6125C
:101682000FA67DB67F021219ED121AB67DD07F0326
:101692001219ED7F107E27121ABA7F031218AC902E
:1016A200006CEFF05410F070F190000EF01214E2A2
:0C16B20090000EEFF0640160031216526D
:0116BE002209
:1019ED0090000FEFF0A3EDF0121A947F687E0012B5
:1019FD00145D90000F121459900010121459121BFF
:081A0D000A7FE87E03021ABA09
:0518AC00900025EFF0A3
:1018B100121A947F687E0012145D9000251214594B
:1018C100121B0A121A947F697E0012145D1213CE44
:1018D100900026EFF0121B3F121B0A900026E0FF3A
:0118E10022E4
:101A9400121AB0439002439001121AB65390FD12E9
:0C1AA4001AB65390FE7F647E00021ABA4E
:101B0A00121AB05390FD121AB6439001121AB64334
:031B1A0090022214
:101B2F00121AB05390FD439001121AB65390FE2231
:101B3F00121AB0439002439001121AB65390FE222C
:04145900E0FF7E0032
:08145D00900027EEF0A3EFF070
:10146500A3E4F0A37480F0121AB090002BE4F0A36B
:101475007408F0900029E0FEA3E0FF900027E05EED
:10148500FEA3E05F4E600543900280035390FD4349
:101495009001121AB65390FE121AB6900029E0A2D6
:1014A500E713F0A3E013F090002CE024FFF0900088
:1014B5002BE034FFF0D3A3E0940090002BE0648090
:1014C500948050AF43900253ABFD121AB64390017E
:0D14D500121AB65390FE7F647E00021ABA10
:1013CE00E4900027F0A3F053ABFD7F64FE121ABA2F
:1013DE00900029E4F0A37408F0121AB6439001129B
:1013EE001AB6900028E025E0F0900027E033F0E5F3
:1013FE009054026009E0F0A3E04401F0800F9000E9
:10140E0027E0FFA3E0900027CFF0A3EFF05390FE6C
:10141E0090002AE024FFF0900029E034FFF0D3A3DF
:10142E00E09400900029E06480948050AC121AB0D1
:10143E00439002121AB6439001121AB65390FE123E
:0A144E001AB6900027E0FEA3E0FFAD
:011458002271
:0A1AB00043AB0243AC027F647E00EA
:101ABA00E4FDFCC3ED9FEC9E50070DBD00010C80B8
:011ACA00F229
:011ACB0022F8
:100FA6007D0C7F201219ED121AB67D017F211219D0
:100FB600ED121AB67DC07F221219ED121AB67D2ED9
:100FC6007F231219ED121AB67D907F241219ED12A5
:100FD6001AB67D807F251219ED121AB67D707F260E
:100FE6001219ED121AB67D187F271219ED121AB6CC
:100FF6007D667F281219ED121AB67D627F291219B5
:10100600ED121AB67DCF7F2A1219ED121AB67D8817
:101016007F2B1219ED121AB67D2A7F2C1219ED12AA
:101026001AB67D047F2D1219ED121AB67D7F7F2E1A
:101036001219ED121AB67D027F2F1219ED121AB689
:101046007DFF7F301219ED121AB67DEB7F31121932
:10105600ED121AB67D267F321219ED121AB67D737D
:0C1066007F331219ED7F647E00021ABA7D
:1014E200780F7C007D017BFF7A0079667E007F1495
:1014F20012014EE4900023F0F0900023E0FFD39419
:1015020013748094805056EF2420FF1218AC900080
:101512006DEFF0900023E0FFD3941274809480501A
:1015220016740F2FF582E43400F583E0FF90006D0E
:10153200E06F60217F002290006DE054F0FFF09098
:101542000023E0240FF582E43400F583E054F06FC9
:0F15520060037F0022900023E004F0809C7F0163
:011561002267
:0D1B7A007D807F011219EDE4FDFF0219EDE1
:051A150090000EEFF04F
:101A1A0043AB0343AC03439003E0FDE4FF1219ED2B
:101A2A00E4FF1218AC90000EE0B507F453ABFC5378
:021A3A00ACFC02
:011A3C002287
:10134E00020382E493A3F8E493A34003F68001F230
:10135E0008DFF48029E493A3F85407240CC8C333A0
:10136E00C4540F4420C8834004F456800146F6DF6F
:10137E00E4800B0102040810204080901A78E47E6D
:10138E00019360BCA3FF543F30E509541FFEE49364
:10139E00A360010ECF54C025E060A840B8E493A32B
:1013AE00FAE493A3F8E493A3C8C582C8CAC583CA56
:1013BE00F0A3C8C582C8CAC583CADFE9DEE780BE0E
:011A93000052
:10007E00E709F608DFFA8046E709F208DFFA803E64
:10008E0088828C83E709F0A3DFFA8032E309F60851
:10009E00DFFA8078E309F208DFFA807088828C83B9
:1000AE00E309F0A3DFFA806489828A83E0A3F6086D
:1000BE00DFFA805889828A83E0A3F208DFFA804C47
:1000CE0080D280FA80C680D4806980F2803380101E
:1000DE0080A680EA809A80A880DA80E280CA803387
:1000EE0089828A83ECFAE493A3C8C582C8CCC583FF
:1000FE00CCF0A3C8C582C8CCC583CCDFE9DEE780CF
:10010E000D89828A83E493A3F608DFF9ECFAA9F04D
:10011E00EDFB2289828A83ECFAE0A3C8C582C8CCA3
:10012E00C583CCF0A3C8C582C8CCC583CCDFEADEBC
:10013E00E880DB89828A83E493A3F208DFF980CC1E
:10014E0088F0EF60010E4E60C388F0ED2402B40417
:10015E000050B9F582EB2402B4040050AF232345BE
:06016E0082239000CE7315
:10017400BB010689828A83E0225002E722BBFE0289
:09018400E32289828A83E49322BC
:10018D00BB010689828A83F0225002F722BBFE0151
:02019D00F3224B
:10019F00EF8DF0A4A8F0CF8CF0A428CE8DF0A42E74
:0201AF00FE222E
:1001B100E88FF0A4CC8BF0A42CFCE98EF0A42CFCED
:1001C1008AF0EDA42CFCEA8EF0A4CDA8F08BF0A46B
:1001D1002DCC3825F0FDE98FF0A42CCD35F0FCEBCA
:1001E1008EF0A4FEA9F0EB8FF0A4CFC5F02ECD398F
:0F01F100FEE43CFCEAA42DCE35F0FDE43CFC22FC
:10171200C2D5E830E70FB2D5E4C39BFBE49AFAE402
:1017220099F9E498F8EC30E717B2D512174812028B
:10173200F0E4C39BFBE49AFAE499F9E498F8800395
:101742001202F030D50DE4C39FFFE49EFEE49DFD3E
:04175200E49CFC22F5
:10020000EB9FF5F0EA9E42F0E99D42F0EC6480C875
:0602100064809845F02215
:10021600E86010ECA2E713FCED13FDEE13FEEF13FE
:04022600FFD8F022EB
:10022A00E8600FEFC333FFEE33FEED33FDEC33FC32
:03023A00D8F122D6
:0C023D00ECF0A3EDF0A3EEF0A3EFF02234
:10024900A8828583F0D083D08212026012026012E4
:100259000260120260E473E493A3C583C5F0C58309
:10026900C8C582C8F0A3C583C5F0C583C8C582C8FF
:010279002262
:10027A00D083D082E4937012740193700DA3A39378
:10028A00F8740193F5828883E4737402936C701294
:10029A007403936D700C7404936E70067405936FF7
:0A02AA0060DDA3A3A3A3A3A380CAF1
:1002B40075F008758200EF2FFFEE33FECD33CDCC01
:1002C40033CCC58233C5829BED9AEC99E582984084
:1002D4000CF582EE9BFEED9AFDEC99FC0FD5F0D661
:1002E400E4CEFBE4CDFAE4CCF9A88222B800C1B98B
:1002F4000059BA002DEC8BF084CFCECDFCE5F0CBC9
:10030400F97818EF2FFFEE33FEED33FDEC33FCEB01
:1003140033FB10D703994004EB99FB0FD8E5E4F9BC
:10032400FA227818EF2FFFEE33FEED33FDEC33FCA9
:10033400C933C910D7059BE99A4007EC9BFCE99A9D
:10034400F90FD8E0E4C9FAE4CCFB2275F010EF2FE2
:10035400FFEE33FEED33FDCC33CCC833C810D707E2
:100364009BEC9AE899400AED9BFDEC9AFCE899F81D
:0E0374000FD5F0DAE4CDFBE4CCFAE4C8F922B0
:00000001FF
